{
  "_format": "hh-sol-artifact-1",
  "contractName": "MyEpicNFT",
  "sourceName": "contracts/MyEpicNFT.sol",
  "abi": [
    {
      "inputs": [],
      "stateMutability": "nonpayable",
      "type": "constructor"
    },
    {
      "anonymous": false,
      "inputs": [
        {
          "indexed": true,
          "internalType": "address",
          "name": "owner",
          "type": "address"
        },
        {
          "indexed": true,
          "internalType": "address",
          "name": "approved",
          "type": "address"
        },
        {
          "indexed": true,
          "internalType": "uint256",
          "name": "tokenId",
          "type": "uint256"
        }
      ],
      "name": "Approval",
      "type": "event"
    },
    {
      "anonymous": false,
      "inputs": [
        {
          "indexed": true,
          "internalType": "address",
          "name": "owner",
          "type": "address"
        },
        {
          "indexed": true,
          "internalType": "address",
          "name": "operator",
          "type": "address"
        },
        {
          "indexed": false,
          "internalType": "bool",
          "name": "approved",
          "type": "bool"
        }
      ],
      "name": "ApprovalForAll",
      "type": "event"
    },
    {
      "anonymous": false,
      "inputs": [
        {
          "indexed": false,
          "internalType": "address",
          "name": "sender",
          "type": "address"
        },
        {
          "indexed": false,
          "internalType": "uint256",
          "name": "tokenId",
          "type": "uint256"
        }
      ],
      "name": "NewEpicNFTMinted",
      "type": "event"
    },
    {
      "anonymous": false,
      "inputs": [
        {
          "indexed": true,
          "internalType": "address",
          "name": "from",
          "type": "address"
        },
        {
          "indexed": true,
          "internalType": "address",
          "name": "to",
          "type": "address"
        },
        {
          "indexed": true,
          "internalType": "uint256",
          "name": "tokenId",
          "type": "uint256"
        }
      ],
      "name": "Transfer",
      "type": "event"
    },
    {
      "inputs": [
        {
          "internalType": "address",
          "name": "to",
          "type": "address"
        },
        {
          "internalType": "uint256",
          "name": "tokenId",
          "type": "uint256"
        }
      ],
      "name": "approve",
      "outputs": [],
      "stateMutability": "nonpayable",
      "type": "function"
    },
    {
      "inputs": [
        {
          "internalType": "address",
          "name": "owner",
          "type": "address"
        }
      ],
      "name": "balanceOf",
      "outputs": [
        {
          "internalType": "uint256",
          "name": "",
          "type": "uint256"
        }
      ],
      "stateMutability": "view",
      "type": "function"
    },
    {
      "inputs": [
        {
          "internalType": "uint256",
          "name": "tokenId",
          "type": "uint256"
        }
      ],
      "name": "getApproved",
      "outputs": [
        {
          "internalType": "address",
          "name": "",
          "type": "address"
        }
      ],
      "stateMutability": "view",
      "type": "function"
    },
    {
      "inputs": [],
      "name": "getNFTCount",
      "outputs": [
        {
          "internalType": "uint256",
          "name": "",
          "type": "uint256"
        }
      ],
      "stateMutability": "view",
      "type": "function"
    },
    {
      "inputs": [
        {
          "internalType": "address",
          "name": "owner",
          "type": "address"
        },
        {
          "internalType": "address",
          "name": "operator",
          "type": "address"
        }
      ],
      "name": "isApprovedForAll",
      "outputs": [
        {
          "internalType": "bool",
          "name": "",
          "type": "bool"
        }
      ],
      "stateMutability": "view",
      "type": "function"
    },
    {
      "inputs": [],
      "name": "makeAnEpicNFT",
      "outputs": [],
      "stateMutability": "nonpayable",
      "type": "function"
    },
    {
      "inputs": [],
      "name": "name",
      "outputs": [
        {
          "internalType": "string",
          "name": "",
          "type": "string"
        }
      ],
      "stateMutability": "view",
      "type": "function"
    },
    {
      "inputs": [
        {
          "internalType": "uint256",
          "name": "tokenId",
          "type": "uint256"
        }
      ],
      "name": "ownerOf",
      "outputs": [
        {
          "internalType": "address",
          "name": "",
          "type": "address"
        }
      ],
      "stateMutability": "view",
      "type": "function"
    },
    {
      "inputs": [
        {
          "internalType": "uint256",
          "name": "tokenId",
          "type": "uint256"
        }
      ],
      "name": "pickRandomFirstWord",
      "outputs": [
        {
          "internalType": "string",
          "name": "",
          "type": "string"
        }
      ],
      "stateMutability": "view",
      "type": "function"
    },
    {
      "inputs": [
        {
          "internalType": "uint256",
          "name": "tokenId",
          "type": "uint256"
        }
      ],
      "name": "pickRandomSecondWord",
      "outputs": [
        {
          "internalType": "string",
          "name": "",
          "type": "string"
        }
      ],
      "stateMutability": "view",
      "type": "function"
    },
    {
      "inputs": [
        {
          "internalType": "uint256",
          "name": "tokenId",
          "type": "uint256"
        }
      ],
      "name": "pickRandomThirdWord",
      "outputs": [
        {
          "internalType": "string",
          "name": "",
          "type": "string"
        }
      ],
      "stateMutability": "view",
      "type": "function"
    },
    {
      "inputs": [
        {
          "internalType": "address",
          "name": "from",
          "type": "address"
        },
        {
          "internalType": "address",
          "name": "to",
          "type": "address"
        },
        {
          "internalType": "uint256",
          "name": "tokenId",
          "type": "uint256"
        }
      ],
      "name": "safeTransferFrom",
      "outputs": [],
      "stateMutability": "nonpayable",
      "type": "function"
    },
    {
      "inputs": [
        {
          "internalType": "address",
          "name": "from",
          "type": "address"
        },
        {
          "internalType": "address",
          "name": "to",
          "type": "address"
        },
        {
          "internalType": "uint256",
          "name": "tokenId",
          "type": "uint256"
        },
        {
          "internalType": "bytes",
          "name": "_data",
          "type": "bytes"
        }
      ],
      "name": "safeTransferFrom",
      "outputs": [],
      "stateMutability": "nonpayable",
      "type": "function"
    },
    {
      "inputs": [
        {
          "internalType": "address",
          "name": "operator",
          "type": "address"
        },
        {
          "internalType": "bool",
          "name": "approved",
          "type": "bool"
        }
      ],
      "name": "setApprovalForAll",
      "outputs": [],
      "stateMutability": "nonpayable",
      "type": "function"
    },
    {
      "inputs": [
        {
          "internalType": "bytes4",
          "name": "interfaceId",
          "type": "bytes4"
        }
      ],
      "name": "supportsInterface",
      "outputs": [
        {
          "internalType": "bool",
          "name": "",
          "type": "bool"
        }
      ],
      "stateMutability": "view",
      "type": "function"
    },
    {
      "inputs": [],
      "name": "symbol",
      "outputs": [
        {
          "internalType": "string",
          "name": "",
          "type": "string"
        }
      ],
      "stateMutability": "view",
      "type": "function"
    },
    {
      "inputs": [
        {
          "internalType": "uint256",
          "name": "tokenId",
          "type": "uint256"
        }
      ],
      "name": "tokenURI",
      "outputs": [
        {
          "internalType": "string",
          "name": "",
          "type": "string"
        }
      ],
      "stateMutability": "view",
      "type": "function"
    },
    {
      "inputs": [
        {
          "internalType": "address",
          "name": "from",
          "type": "address"
        },
        {
          "internalType": "address",
          "name": "to",
          "type": "address"
        },
        {
          "internalType": "uint256",
          "name": "tokenId",
          "type": "uint256"
        }
      ],
      "name": "transferFrom",
      "outputs": [],
      "stateMutability": "nonpayable",
      "type": "function"
    }
  ],
  "bytecode": "0x6080604052604051806103c001604052806103858152602001620043b7610385913960089080519060200190620000389291906200067e565b506040518060c001604052806040518060400160405280600b81526020017f4472616d6174757267756500000000000000000000000000000000000000000081525081526020016040518060400160405280600981526020017f506572666f726d6572000000000000000000000000000000000000000000000081525081526020016040518060400160405280600581526020017f506f65746100000000000000000000000000000000000000000000000000000081525081526020016040518060400160405280600781526020017f50696e746f72650000000000000000000000000000000000000000000000000081525081526020016040518060400160405280600981526020017f4573637269746f7265000000000000000000000000000000000000000000000081525081526020016040518060400160405280600881526020017f43616e74616e74650000000000000000000000000000000000000000000000008152508152506009906006620001b69291906200070f565b506040518060c001604052806040518060400160405280600a81526020017f506f736d6f6465726e650000000000000000000000000000000000000000000081525081526020016040518060400160405280600781526020017f416c7465726e650000000000000000000000000000000000000000000000000081525081526020016040518060400160405280600c81526020017f5472616e73677265736f7265000000000000000000000000000000000000000081525081526020016040518060400160405280600981526020017f4e6968696c69737461000000000000000000000000000000000000000000000081525081526020016040518060400160405280600581526020017f506f73742d00000000000000000000000000000000000000000000000000000081525081526020016040518060400160405280600581526020017f4461726b73000000000000000000000000000000000000000000000000000000815250815250600a906006620003349291906200070f565b506040518060c001604052806040518060400160405280600981526020017f467275737472616465000000000000000000000000000000000000000000000081525081526020016040518060400160405280600881526020017f426f72726163686500000000000000000000000000000000000000000000000081525081526020016040518060400160405280600981526020017f52656368617a616465000000000000000000000000000000000000000000000081525081526020016040518060400160405280600881526020017f53696e464f4e434100000000000000000000000000000000000000000000000081525081526020016040518060400160405280600981526020017f50726f6d6973637565000000000000000000000000000000000000000000000081525081526020016040518060400160405280600881526020017f49676e6f72616465000000000000000000000000000000000000000000000000815250815250600b906006620004b29291906200070f565b50348015620004c057600080fd5b506040518060400160405280601081526020017f4e6f6d627265417274697374614e4654000000000000000000000000000000008152506040518060400160405280600481526020017f4e415254000000000000000000000000000000000000000000000000000000008152508160009080519060200190620005459291906200067e565b5080600190805190602001906200055e9291906200067e565b505050620005ac6040518060400160405280600c81526020017f4e465420436f6e74726163740000000000000000000000000000000000000000815250620005b260201b620012221760201c565b62000930565b6200065281604051602401620005c9919062000844565b6040516020818303038152906040527f41304fac000000000000000000000000000000000000000000000000000000007bffffffffffffffffffffffffffffffffffffffffffffffffffffffff19166020820180517bffffffffffffffffffffffffffffffffffffffffffffffffffffffff83818316178352505050506200065560201b60201c565b50565b60008151905060006a636f6e736f6c652e6c6f679050602083016000808483855afa5050505050565b8280546200068c90620008ba565b90600052602060002090601f016020900481019282620006b05760008555620006fc565b82601f10620006cb57805160ff1916838001178555620006fc565b82800160010185558215620006fc579182015b82811115620006fb578251825591602001919060010190620006de565b5b5090506200070b919062000776565b5090565b82805482825590600052602060002090810192821562000763579160200282015b8281111562000762578251829080519060200190620007519291906200067e565b509160200191906001019062000730565b5b50905062000772919062000795565b5090565b5b808211156200079157600081600090555060010162000777565b5090565b5b80821115620007b95760008181620007af9190620007bd565b5060010162000796565b5090565b508054620007cb90620008ba565b6000825580601f10620007df575062000800565b601f016020900490600052602060002090810190620007ff919062000776565b5b50565b6000620008108262000868565b6200081c818562000873565b93506200082e81856020860162000884565b62000839816200091f565b840191505092915050565b6000602082019050818103600083015262000860818462000803565b905092915050565b600081519050919050565b600082825260208201905092915050565b60005b83811015620008a457808201518184015260208101905062000887565b83811115620008b4576000848401525b50505050565b60006002820490506001821680620008d357607f821691505b60208210811415620008ea57620008e9620008f0565b5b50919050565b7f4e487b7100000000000000000000000000000000000000000000000000000000600052602260045260246000fd5b6000601f19601f8301169050919050565b613a7780620009406000396000f3fe608060405234801561001057600080fd5b50600436106101165760003560e01c806370a08231116100a2578063b88d4fde11610071578063b88d4fde14610305578063c575757a14610321578063c87b56dd14610351578063de9d132f14610381578063e985e9c51461038b57610116565b806370a082311461026b57806395d89b411461029b578063a22cb465146102b9578063b187301f146102d557610116565b806323b872dd116100e957806323b872dd146101b55780632de38d68146101d157806342842e0e14610201578063542796371461021d5780636352211e1461023b57610116565b806301ffc9a71461011b57806306fdde031461014b578063081812fc14610169578063095ea7b314610199575b600080fd5b610135600480360381019061013091906124b5565b6103bb565b6040516101429190612c1b565b60405180910390f35b61015361049d565b6040516101609190612c36565b60405180910390f35b610183600480360381019061017e9190612507565b61052f565b6040516101909190612b8b565b60405180910390f35b6101b360048036038101906101ae9190612479565b6105b4565b005b6101cf60048036038101906101ca9190612373565b6106cc565b005b6101eb60048036038101906101e69190612507565b61072c565b6040516101f89190612c36565b60405180910390f35b61021b60048036038101906102169190612373565b61084a565b005b61022561086a565b6040516102329190612eb6565b60405180910390f35b61025560048036038101906102509190612507565b61087b565b6040516102629190612b8b565b60405180910390f35b6102856004803603810190610280919061230e565b61092d565b6040516102929190612eb6565b60405180910390f35b6102a36109e5565b6040516102b09190612c36565b60405180910390f35b6102d360048036038101906102ce919061243d565b610a77565b005b6102ef60048036038101906102ea9190612507565b610bf8565b6040516102fc9190612c36565b60405180910390f35b61031f600480360381019061031a91906123c2565b610d16565b005b61033b60048036038101906103369190612507565b610d78565b6040516103489190612c36565b60405180910390f35b61036b60048036038101906103669190612507565b610e96565b6040516103789190612c36565b60405180910390f35b610389610fe8565b005b6103a560048036038101906103a09190612337565b61118e565b6040516103b29190612c1b565b60405180910390f35b60007f80ac58cd000000000000000000000000000000000000000000000000000000007bffffffffffffffffffffffffffffffffffffffffffffffffffffffff1916827bffffffffffffffffffffffffffffffffffffffffffffffffffffffff1916148061048657507f5b5e139f000000000000000000000000000000000000000000000000000000007bffffffffffffffffffffffffffffffffffffffffffffffffffffffff1916827bffffffffffffffffffffffffffffffffffffffffffffffffffffffff1916145b806104965750610495826112bb565b5b9050919050565b6060600080546104ac9061314a565b80601f01602080910402602001604051908101604052809291908181526020018280546104d89061314a565b80156105255780601f106104fa57610100808354040283529160200191610525565b820191906000526020600020905b81548152906001019060200180831161050857829003601f168201915b5050505050905090565b600061053a82611325565b610579576040517f08c379a000000000000000000000000000000000000000000000000000000000815260040161057090612df6565b60405180910390fd5b6004600083815260200190815260200160002060009054906101000a900473ffffffffffffffffffffffffffffffffffffffff169050919050565b60006105bf8261087b565b90508073ffffffffffffffffffffffffffffffffffffffff168373ffffffffffffffffffffffffffffffffffffffff161415610630576040517f08c379a000000000000000000000000000000000000000000000000000000000815260040161062790612e56565b60405180910390fd5b8073ffffffffffffffffffffffffffffffffffffffff1661064f611391565b73ffffffffffffffffffffffffffffffffffffffff16148061067e575061067d81610678611391565b61118e565b5b6106bd576040517f08c379a00000000000000000000000000000000000000000000000000000000081526004016106b490612d36565b60405180910390fd5b6106c78383611399565b505050565b6106dd6106d7611391565b82611452565b61071c576040517f08c379a000000000000000000000000000000000000000000000000000000000815260040161071390612e76565b60405180910390fd5b610727838383611530565b505050565b6060600061076061073c8461178c565b60405160200161074c9190612b47565b604051602081830303815290604052611939565b90506009805490508161077391906131f6565b9050600981815481106107af577f4e487b7100000000000000000000000000000000000000000000000000000000600052603260045260246000fd5b9060005260206000200180546107c49061314a565b80601f01602080910402602001604051908101604052809291908181526020018280546107f09061314a565b801561083d5780601f106108125761010080835404028352916020019161083d565b820191906000526020600020905b81548152906001019060200180831161082057829003601f168201915b5050505050915050919050565b61086583838360405180602001604052806000815250610d16565b505050565b6000610876600761196c565b905090565b6000806002600084815260200190815260200160002060009054906101000a900473ffffffffffffffffffffffffffffffffffffffff169050600073ffffffffffffffffffffffffffffffffffffffff168173ffffffffffffffffffffffffffffffffffffffff161415610924576040517f08c379a000000000000000000000000000000000000000000000000000000000815260040161091b90612d76565b60405180910390fd5b80915050919050565b60008073ffffffffffffffffffffffffffffffffffffffff168273ffffffffffffffffffffffffffffffffffffffff16141561099e576040517f08c379a000000000000000000000000000000000000000000000000000000000815260040161099590612d56565b60405180910390fd5b600360008373ffffffffffffffffffffffffffffffffffffffff1673ffffffffffffffffffffffffffffffffffffffff168152602001908152602001600020549050919050565b6060600180546109f49061314a565b80601f0160208091040260200160405190810160405280929190818152602001828054610a209061314a565b8015610a6d5780601f10610a4257610100808354040283529160200191610a6d565b820191906000526020600020905b815481529060010190602001808311610a5057829003601f168201915b5050505050905090565b610a7f611391565b73ffffffffffffffffffffffffffffffffffffffff168273ffffffffffffffffffffffffffffffffffffffff161415610aed576040517f08c379a0000000000000000000000000000000000000000000000000000000008152600401610ae490612cf6565b60405180910390fd5b8060056000610afa611391565b73ffffffffffffffffffffffffffffffffffffffff1673ffffffffffffffffffffffffffffffffffffffff16815260200190815260200160002060008473ffffffffffffffffffffffffffffffffffffffff1673ffffffffffffffffffffffffffffffffffffffff16815260200190815260200160002060006101000a81548160ff0219169083151502179055508173ffffffffffffffffffffffffffffffffffffffff16610ba7611391565b73ffffffffffffffffffffffffffffffffffffffff167f17307eab39ab6107e8899845ad3d59bd9653f200f220920489ca2b5937696c3183604051610bec9190612c1b565b60405180910390a35050565b60606000610c2c610c088461178c565b604051602001610c189190612ae0565b604051602081830303815290604052611939565b9050600a8054905081610c3f91906131f6565b9050600a8181548110610c7b577f4e487b7100000000000000000000000000000000000000000000000000000000600052603260045260246000fd5b906000526020600020018054610c909061314a565b80601f0160208091040260200160405190810160405280929190818152602001828054610cbc9061314a565b8015610d095780601f10610cde57610100808354040283529160200191610d09565b820191906000526020600020905b815481529060010190602001808311610cec57829003601f168201915b5050505050915050919050565b610d27610d21611391565b83611452565b610d66576040517f08c379a0000000000000000000000000000000000000000000000000000000008152600401610d5d90612e76565b60405180910390fd5b610d728484848461197a565b50505050565b60606000610dac610d888461178c565b604051602001610d989190612abe565b604051602081830303815290604052611939565b9050600b8054905081610dbf91906131f6565b9050600b8181548110610dfb577f4e487b7100000000000000000000000000000000000000000000000000000000600052603260045260246000fd5b906000526020600020018054610e109061314a565b80601f0160208091040260200160405190810160405280929190818152602001828054610e3c9061314a565b8015610e895780601f10610e5e57610100808354040283529160200191610e89565b820191906000526020600020905b815481529060010190602001808311610e6c57829003601f168201915b5050505050915050919050565b6060610ea182611325565b610ee0576040517f08c379a0000000000000000000000000000000000000000000000000000000008152600401610ed790612dd6565b60405180910390fd5b6000600660008481526020019081526020016000208054610f009061314a565b80601f0160208091040260200160405190810160405280929190818152602001828054610f2c9061314a565b8015610f795780601f10610f4e57610100808354040283529160200191610f79565b820191906000526020600020905b815481529060010190602001808311610f5c57829003601f168201915b505050505090506000610f8a6119d6565b9050600081511415610fa0578192505050610fe3565b600082511115610fd5578082604051602001610fbd929190612a24565b60405160208183030381529060405292505050610fe3565b610fde846119ed565b925050505b919050565b6000610ff4600761196c565b9050603181111561103a576040517f08c379a000000000000000000000000000000000000000000000000000000000815260040161103190612e96565b60405180910390fd5b60006110458261072c565b9050600061105283610bf8565b9050600061105f84610d78565b9050600083838360405160200161107893929190612a48565b6040516020818303038152906040529050600060088260405160200161109f929190612a8f565b604051602081830303815290604052905060006110e4836110bf84611a94565b6040516020016110d0929190612b02565b604051602081830303815290604052611a94565b90506000816040516020016110f99190612b69565b60405160208183030381529060405290506111143389611c52565b61111e8882611c70565b611141604051806060016040528060278152602001613a1b602791398933611ce4565b7febb98688741ffa4c7589bf325de30cf7becb63de567842e1ccdb6cb949fdc82c3389604051611172929190612bf2565b60405180910390a16111846007611d83565b5050505050505050565b6000600560008473ffffffffffffffffffffffffffffffffffffffff1673ffffffffffffffffffffffffffffffffffffffff16815260200190815260200160002060008373ffffffffffffffffffffffffffffffffffffffff1673ffffffffffffffffffffffffffffffffffffffff16815260200190815260200160002060009054906101000a900460ff16905092915050565b6112b8816040516024016112369190612c36565b6040516020818303038152906040527f41304fac000000000000000000000000000000000000000000000000000000007bffffffffffffffffffffffffffffffffffffffffffffffffffffffff19166020820180517bffffffffffffffffffffffffffffffffffffffffffffffffffffffff8381831617835250505050611d99565b50565b60007f01ffc9a7000000000000000000000000000000000000000000000000000000007bffffffffffffffffffffffffffffffffffffffffffffffffffffffff1916827bffffffffffffffffffffffffffffffffffffffffffffffffffffffff1916149050919050565b60008073ffffffffffffffffffffffffffffffffffffffff166002600084815260200190815260200160002060009054906101000a900473ffffffffffffffffffffffffffffffffffffffff1673ffffffffffffffffffffffffffffffffffffffff1614159050919050565b600033905090565b816004600083815260200190815260200160002060006101000a81548173ffffffffffffffffffffffffffffffffffffffff021916908373ffffffffffffffffffffffffffffffffffffffff160217905550808273ffffffffffffffffffffffffffffffffffffffff1661140c8361087b565b73ffffffffffffffffffffffffffffffffffffffff167f8c5be1e5ebec7d5bd14f71427d1e84f3dd0314c0f7b2291e5b200ac8c7c3b92560405160405180910390a45050565b600061145d82611325565b61149c576040517f08c379a000000000000000000000000000000000000000000000000000000000815260040161149390612d16565b60405180910390fd5b60006114a78361087b565b90508073ffffffffffffffffffffffffffffffffffffffff168473ffffffffffffffffffffffffffffffffffffffff16148061151657508373ffffffffffffffffffffffffffffffffffffffff166114fe8461052f565b73ffffffffffffffffffffffffffffffffffffffff16145b806115275750611526818561118e565b5b91505092915050565b8273ffffffffffffffffffffffffffffffffffffffff166115508261087b565b73ffffffffffffffffffffffffffffffffffffffff16146115a6576040517f08c379a000000000000000000000000000000000000000000000000000000000815260040161159d90612e16565b60405180910390fd5b600073ffffffffffffffffffffffffffffffffffffffff168273ffffffffffffffffffffffffffffffffffffffff161415611616576040517f08c379a000000000000000000000000000000000000000000000000000000000815260040161160d90612cd6565b60405180910390fd5b611621838383611dc2565b61162c600082611399565b6001600360008573ffffffffffffffffffffffffffffffffffffffff1673ffffffffffffffffffffffffffffffffffffffff168152602001908152602001600020600082825461167c9190613060565b925050819055506001600360008473ffffffffffffffffffffffffffffffffffffffff1673ffffffffffffffffffffffffffffffffffffffff16815260200190815260200160002060008282546116d39190612f7f565b92505081905550816002600083815260200190815260200160002060006101000a81548173ffffffffffffffffffffffffffffffffffffffff021916908373ffffffffffffffffffffffffffffffffffffffff160217905550808273ffffffffffffffffffffffffffffffffffffffff168473ffffffffffffffffffffffffffffffffffffffff167fddf252ad1be2c89b69c2b068fc378daa952ba7f163c4a11628f55a4df523b3ef60405160405180910390a4505050565b606060008214156117d4576040518060400160405280600181526020017f30000000000000000000000000000000000000000000000000000000000000008152509050611934565b600082905060005b600082146118065780806117ef906131ad565b915050600a826117ff9190612fd5565b91506117dc565b60008167ffffffffffffffff811115611848577f4e487b7100000000000000000000000000000000000000000000000000000000600052604160045260246000fd5b6040519080825280601f01601f19166020018201604052801561187a5781602001600182028036833780820191505090505b5090505b6000851461192d576001826118939190613060565b9150600a856118a291906131f6565b60306118ae9190612f7f565b60f81b8183815181106118ea577f4e487b7100000000000000000000000000000000000000000000000000000000600052603260045260246000fd5b60200101907effffffffffffffffffffffffffffffffffffffffffffffffffffffffffffff1916908160001a905350600a856119269190612fd5565b945061187e565b8093505050505b919050565b60008160405160200161194c9190612a0d565b6040516020818303038152906040528051906020012060001c9050919050565b600081600001549050919050565b611985848484611530565b61199184848484611dc7565b6119d0576040517f08c379a00000000000000000000000000000000000000000000000000000000081526004016119c790612c96565b60405180910390fd5b50505050565b606060405180602001604052806000815250905090565b60606119f882611325565b611a37576040517f08c379a0000000000000000000000000000000000000000000000000000000008152600401611a2e90612e36565b60405180910390fd5b6000611a416119d6565b90506000815111611a615760405180602001604052806000815250611a8c565b80611a6b8461178c565b604051602001611a7c929190612a24565b6040516020818303038152906040525b915050919050565b60606000825190506000811415611abd5760405180602001604052806000815250915050611c4d565b60006003600283611ace9190612f7f565b611ad89190612fd5565b6004611ae49190613006565b90506000602082611af59190612f7f565b67ffffffffffffffff811115611b34577f4e487b7100000000000000000000000000000000000000000000000000000000600052604160045260246000fd5b6040519080825280601f01601f191660200182016040528015611b665781602001600182028036833780820191505090505b50905060006040518060600160405280604081526020016139db604091399050600181016020830160005b86811015611c0a5760038101905062ffffff818a015116603f8160121c168401518060081b905060ff603f83600c1c1686015116810190508060081b905060ff603f8360061c1686015116810190508060081b905060ff603f831686015116810190508060e01b90508084526004840193505050611b91565b506003860660018114611c245760028114611c3457611c3f565b613d3d60f01b6002830352611c3f565b603d60f81b60018303525b508484525050819450505050505b919050565b611c6c828260405180602001604052806000815250611f5e565b5050565b611c7982611325565b611cb8576040517f08c379a0000000000000000000000000000000000000000000000000000000008152600401611caf90612d96565b60405180910390fd5b80600660008481526020019081526020016000209080519060200190611cdf92919061219a565b505050565b611d7e838383604051602401611cfc93929190612c58565b6040516020818303038152906040527fe3849f79000000000000000000000000000000000000000000000000000000007bffffffffffffffffffffffffffffffffffffffffffffffffffffffff19166020820180517bffffffffffffffffffffffffffffffffffffffffffffffffffffffff8381831617835250505050611d99565b505050565b6001816000016000828254019250508190555050565b60008151905060006a636f6e736f6c652e6c6f679050602083016000808483855afa5050505050565b505050565b6000611de88473ffffffffffffffffffffffffffffffffffffffff16611fb9565b15611f51578373ffffffffffffffffffffffffffffffffffffffff1663150b7a02611e11611391565b8786866040518563ffffffff1660e01b8152600401611e339493929190612ba6565b602060405180830381600087803b158015611e4d57600080fd5b505af1925050508015611e7e57506040513d601f19601f82011682018060405250810190611e7b91906124de565b60015b611f01573d8060008114611eae576040519150601f19603f3d011682016040523d82523d6000602084013e611eb3565b606091505b50600081511415611ef9576040517f08c379a0000000000000000000000000000000000000000000000000000000008152600401611ef090612c96565b60405180910390fd5b805181602001fd5b63150b7a0260e01b7bffffffffffffffffffffffffffffffffffffffffffffffffffffffff1916817bffffffffffffffffffffffffffffffffffffffffffffffffffffffff191614915050611f56565b600190505b949350505050565b611f688383611fcc565b611f756000848484611dc7565b611fb4576040517f08c379a0000000000000000000000000000000000000000000000000000000008152600401611fab90612c96565b60405180910390fd5b505050565b600080823b905060008111915050919050565b600073ffffffffffffffffffffffffffffffffffffffff168273ffffffffffffffffffffffffffffffffffffffff16141561203c576040517f08c379a000000000000000000000000000000000000000000000000000000000815260040161203390612db6565b60405180910390fd5b61204581611325565b15612085576040517f08c379a000000000000000000000000000000000000000000000000000000000815260040161207c90612cb6565b60405180910390fd5b61209160008383611dc2565b6001600360008473ffffffffffffffffffffffffffffffffffffffff1673ffffffffffffffffffffffffffffffffffffffff16815260200190815260200160002060008282546120e19190612f7f565b92505081905550816002600083815260200190815260200160002060006101000a81548173ffffffffffffffffffffffffffffffffffffffff021916908373ffffffffffffffffffffffffffffffffffffffff160217905550808273ffffffffffffffffffffffffffffffffffffffff16600073ffffffffffffffffffffffffffffffffffffffff167fddf252ad1be2c89b69c2b068fc378daa952ba7f163c4a11628f55a4df523b3ef60405160405180910390a45050565b8280546121a69061314a565b90600052602060002090601f0160209004810192826121c8576000855561220f565b82601f106121e157805160ff191683800117855561220f565b8280016001018555821561220f579182015b8281111561220e5782518255916020019190600101906121f3565b5b50905061221c9190612220565b5090565b5b80821115612239576000816000905550600101612221565b5090565b600061225061224b84612ef6565b612ed1565b90508281526020810184848401111561226857600080fd5b612273848285613108565b509392505050565b60008135905061228a8161397e565b92915050565b60008135905061229f81613995565b92915050565b6000813590506122b4816139ac565b92915050565b6000815190506122c9816139ac565b92915050565b600082601f8301126122e057600080fd5b81356122f084826020860161223d565b91505092915050565b600081359050612308816139c3565b92915050565b60006020828403121561232057600080fd5b600061232e8482850161227b565b91505092915050565b6000806040838503121561234a57600080fd5b60006123588582860161227b565b92505060206123698582860161227b565b9150509250929050565b60008060006060848603121561238857600080fd5b60006123968682870161227b565b93505060206123a78682870161227b565b92505060406123b8868287016122f9565b9150509250925092565b600080600080608085870312156123d857600080fd5b60006123e68782880161227b565b94505060206123f78782880161227b565b9350506040612408878288016122f9565b925050606085013567ffffffffffffffff81111561242557600080fd5b612431878288016122cf565b91505092959194509250565b6000806040838503121561245057600080fd5b600061245e8582860161227b565b925050602061246f85828601612290565b9150509250929050565b6000806040838503121561248c57600080fd5b600061249a8582860161227b565b92505060206124ab858286016122f9565b9150509250929050565b6000602082840312156124c757600080fd5b60006124d5848285016122a5565b91505092915050565b6000602082840312156124f057600080fd5b60006124fe848285016122ba565b91505092915050565b60006020828403121561251957600080fd5b6000612527848285016122f9565b91505092915050565b61253981613094565b82525050565b612548816130a6565b82525050565b600061255982612f3c565b6125638185612f52565b9350612573818560208601613117565b61257c816132e3565b840191505092915050565b600061259282612f47565b61259c8185612f63565b93506125ac818560208601613117565b6125b5816132e3565b840191505092915050565b60006125cb82612f47565b6125d58185612f74565b93506125e5818560208601613117565b80840191505092915050565b600081546125fe8161314a565b6126088186612f74565b94506001821660008114612623576001811461263457612667565b60ff19831686528186019350612667565b61263d85612f27565b60005b8381101561265f57815481890152600182019150602081019050612640565b838801955050505b50505092915050565b600061267d603283612f63565b9150612688826132f4565b604082019050919050565b60006126a0601c83612f63565b91506126ab82613343565b602082019050919050565b60006126c3600a83612f74565b91506126ce8261336c565b600a82019050919050565b60006126e6602483612f63565b91506126f182613395565b604082019050919050565b6000612709601983612f63565b9150612714826133e4565b602082019050919050565b600061272c600b83612f74565b91506127378261340d565b600b82019050919050565b600061274f602c83612f63565b915061275a82613436565b604082019050919050565b6000612772600d83612f74565b915061277d82613485565b600d82019050919050565b6000612795600183612f74565b91506127a0826134ae565b600182019050919050565b60006127b8603883612f63565b91506127c3826134d7565b604082019050919050565b60006127db602a83612f63565b91506127e682613526565b604082019050919050565b60006127fe602983612f63565b915061280982613575565b604082019050919050565b6000612821602e83612f63565b915061282c826135c4565b604082019050919050565b6000612844600283612f74565b915061284f82613613565b600282019050919050565b6000612867602083612f63565b91506128728261363c565b602082019050919050565b600061288a603183612f63565b915061289582613665565b604082019050919050565b60006128ad602c83612f63565b91506128b8826136b4565b604082019050919050565b60006128d0602983612f63565b91506128db82613703565b604082019050919050565b60006128f3602f83612f63565b91506128fe82613752565b604082019050919050565b6000612916600a83612f74565b9150612921826137a1565b600a82019050919050565b6000612939602183612f63565b9150612944826137ca565b604082019050919050565b600061295c600a83612f74565b915061296782613819565b600a82019050919050565b600061297f601d83612f74565b915061298a82613842565b601d82019050919050565b60006129a2603183612f63565b91506129ad8261386b565b604082019050919050565b60006129c5601c83612f63565b91506129d0826138ba565b602082019050919050565b60006129e8606e83612f74565b91506129f3826138e3565b606e82019050919050565b612a07816130fe565b82525050565b6000612a1982846125c0565b915081905092915050565b6000612a3082856125c0565b9150612a3c82846125c0565b91508190509392505050565b6000612a5482866125c0565b9150612a5f82612788565b9150612a6b82856125c0565b9150612a7682612788565b9150612a8282846125c0565b9150819050949350505050565b6000612a9b82856125f1565b9150612aa782846125c0565b9150612ab282612765565b91508190509392505050565b6000612ac9826126b6565b9150612ad582846125c0565b915081905092915050565b6000612aeb8261271f565b9150612af782846125c0565b915081905092915050565b6000612b0d82612909565b9150612b1982856125c0565b9150612b24826129db565b9150612b3082846125c0565b9150612b3b82612837565b91508190509392505050565b6000612b528261294f565b9150612b5e82846125c0565b915081905092915050565b6000612b7482612972565b9150612b8082846125c0565b915081905092915050565b6000602082019050612ba06000830184612530565b92915050565b6000608082019050612bbb6000830187612530565b612bc86020830186612530565b612bd560408301856129fe565b8181036060830152612be7818461254e565b905095945050505050565b6000604082019050612c076000830185612530565b612c1460208301846129fe565b9392505050565b6000602082019050612c30600083018461253f565b92915050565b60006020820190508181036000830152612c508184612587565b905092915050565b60006060820190508181036000830152612c728186612587565b9050612c8160208301856129fe565b612c8e6040830184612530565b949350505050565b60006020820190508181036000830152612caf81612670565b9050919050565b60006020820190508181036000830152612ccf81612693565b9050919050565b60006020820190508181036000830152612cef816126d9565b9050919050565b60006020820190508181036000830152612d0f816126fc565b9050919050565b60006020820190508181036000830152612d2f81612742565b9050919050565b60006020820190508181036000830152612d4f816127ab565b9050919050565b60006020820190508181036000830152612d6f816127ce565b9050919050565b60006020820190508181036000830152612d8f816127f1565b9050919050565b60006020820190508181036000830152612daf81612814565b9050919050565b60006020820190508181036000830152612dcf8161285a565b9050919050565b60006020820190508181036000830152612def8161287d565b9050919050565b60006020820190508181036000830152612e0f816128a0565b9050919050565b60006020820190508181036000830152612e2f816128c3565b9050919050565b60006020820190508181036000830152612e4f816128e6565b9050919050565b60006020820190508181036000830152612e6f8161292c565b9050919050565b60006020820190508181036000830152612e8f81612995565b9050919050565b60006020820190508181036000830152612eaf816129b8565b9050919050565b6000602082019050612ecb60008301846129fe565b92915050565b6000612edb612eec565b9050612ee7828261317c565b919050565b6000604051905090565b600067ffffffffffffffff821115612f1157612f106132b4565b5b612f1a826132e3565b9050602081019050919050565b60008190508160005260206000209050919050565b600081519050919050565b600081519050919050565b600082825260208201905092915050565b600082825260208201905092915050565b600081905092915050565b6000612f8a826130fe565b9150612f95836130fe565b9250827fffffffffffffffffffffffffffffffffffffffffffffffffffffffffffffffff03821115612fca57612fc9613227565b5b828201905092915050565b6000612fe0826130fe565b9150612feb836130fe565b925082612ffb57612ffa613256565b5b828204905092915050565b6000613011826130fe565b915061301c836130fe565b9250817fffffffffffffffffffffffffffffffffffffffffffffffffffffffffffffffff048311821515161561305557613054613227565b5b828202905092915050565b600061306b826130fe565b9150613076836130fe565b92508282101561308957613088613227565b5b828203905092915050565b600061309f826130de565b9050919050565b60008115159050919050565b60007fffffffff0000000000000000000000000000000000000000000000000000000082169050919050565b600073ffffffffffffffffffffffffffffffffffffffff82169050919050565b6000819050919050565b82818337600083830152505050565b60005b8381101561313557808201518184015260208101905061311a565b83811115613144576000848401525b50505050565b6000600282049050600182168061316257607f821691505b6020821081141561317657613175613285565b5b50919050565b613185826132e3565b810181811067ffffffffffffffff821117156131a4576131a36132b4565b5b80604052505050565b60006131b8826130fe565b91507fffffffffffffffffffffffffffffffffffffffffffffffffffffffffffffffff8214156131eb576131ea613227565b5b600182019050919050565b6000613201826130fe565b915061320c836130fe565b92508261321c5761321b613256565b5b828206905092915050565b7f4e487b7100000000000000000000000000000000000000000000000000000000600052601160045260246000fd5b7f4e487b7100000000000000000000000000000000000000000000000000000000600052601260045260246000fd5b7f4e487b7100000000000000000000000000000000000000000000000000000000600052602260045260246000fd5b7f4e487b7100000000000000000000000000000000000000000000000000000000600052604160045260246000fd5b6000601f19601f8301169050919050565b7f4552433732313a207472616e7366657220746f206e6f6e20455243373231526560008201527f63656976657220696d706c656d656e7465720000000000000000000000000000602082015250565b7f4552433732313a20746f6b656e20616c7265616479206d696e74656400000000600082015250565b7f54484952445f574f524400000000000000000000000000000000000000000000600082015250565b7f4552433732313a207472616e7366657220746f20746865207a65726f2061646460008201527f7265737300000000000000000000000000000000000000000000000000000000602082015250565b7f4552433732313a20617070726f766520746f2063616c6c657200000000000000600082015250565b7f5345434f4e445f574f5244000000000000000000000000000000000000000000600082015250565b7f4552433732313a206f70657261746f7220717565727920666f72206e6f6e657860008201527f697374656e7420746f6b656e0000000000000000000000000000000000000000602082015250565b7f3c2f746578743e3c2f7376673e00000000000000000000000000000000000000600082015250565b7f2000000000000000000000000000000000000000000000000000000000000000600082015250565b7f4552433732313a20617070726f76652063616c6c6572206973206e6f74206f7760008201527f6e6572206e6f7220617070726f76656420666f7220616c6c0000000000000000602082015250565b7f4552433732313a2062616c616e636520717565727920666f7220746865207a6560008201527f726f206164647265737300000000000000000000000000000000000000000000602082015250565b7f4552433732313a206f776e657220717565727920666f72206e6f6e657869737460008201527f656e7420746f6b656e0000000000000000000000000000000000000000000000602082015250565b7f45524337323155524953746f726167653a2055524920736574206f66206e6f6e60008201527f6578697374656e7420746f6b656e000000000000000000000000000000000000602082015250565b7f227d000000000000000000000000000000000000000000000000000000000000600082015250565b7f4552433732313a206d696e7420746f20746865207a65726f2061646472657373600082015250565b7f45524337323155524953746f726167653a2055524920717565727920666f722060008201527f6e6f6e6578697374656e7420746f6b656e000000000000000000000000000000602082015250565b7f4552433732313a20617070726f76656420717565727920666f72206e6f6e657860008201527f697374656e7420746f6b656e0000000000000000000000000000000000000000602082015250565b7f4552433732313a207472616e73666572206f6620746f6b656e2074686174206960008201527f73206e6f74206f776e0000000000000000000000000000000000000000000000602082015250565b7f4552433732314d657461646174613a2055524920717565727920666f72206e6f60008201527f6e6578697374656e7420746f6b656e0000000000000000000000000000000000602082015250565b7f7b226e616d65223a202200000000000000000000000000000000000000000000600082015250565b7f4552433732313a20617070726f76616c20746f2063757272656e74206f776e6560008201527f7200000000000000000000000000000000000000000000000000000000000000602082015250565b7f46495253545f574f524400000000000000000000000000000000000000000000600082015250565b7f646174613a6170706c69636174696f6e2f6a736f6e3b6261736536342c000000600082015250565b7f4552433732313a207472616e736665722063616c6c6572206973206e6f74206f60008201527f776e6572206e6f7220617070726f766564000000000000000000000000000000602082015250565b7f546f6b656e206c696d697420686173206265656e207265616368656400000000600082015250565b7f222c20226465736372697074696f6e223a20224120686967686c79206163636c60008201527f61696d656420636f6c6c656374696f6e206f662061727469737473207472756560208201527f206e616d65732e222c2022696d616765223a2022646174613a696d6167652f7360408201527f76672b786d6c3b6261736536342c000000000000000000000000000000000000606082015250565b61398781613094565b811461399257600080fd5b50565b61399e816130a6565b81146139a957600080fd5b50565b6139b5816130b2565b81146139c057600080fd5b50565b6139cc816130fe565b81146139d757600080fd5b5056fe4142434445464748494a4b4c4d4e4f505152535455565758595a6162636465666768696a6b6c6d6e6f707172737475767778797a303132333435363738392b2f416e204e4654207769746820494420257320686173206265656e206d696e74656420746f202573a2646970667358221220358efb29450114d5148c0fc868a8b90db65870ec01705aed884b131c8f0fc58164736f6c634300080400333c73766720786d6c6e733d27687474703a2f2f7777772e77332e6f72672f323030302f737667272077696474683d273130302527206865696768743d2731303025272076696577426f783d273020302038303020343030273e3c726563742066696c6c3d2723333330303030272077696474683d2738303027206865696768743d27343030272f3e3c646566733e3c72616469616c4772616469656e742069643d2761272063783d27333936272063793d273238312720723d2735313427206772616469656e74556e6974733d277573657253706163654f6e557365273e3c73746f7020206f66667365743d2730272073746f702d636f6c6f723d2723443138272f3e3c73746f7020206f66667365743d2731272073746f702d636f6c6f723d2723333330303030272f3e3c2f72616469616c4772616469656e743e3c6c696e6561724772616469656e742069643d276227206772616469656e74556e6974733d277573657253706163654f6e557365272078313d27343030272079313d27313438272078323d27343030272079323d27333333273e3c73746f70206f66667365743d273027202073746f702d636f6c6f723d2723464133272073746f702d6f7061636974793d2730272f3e3c73746f70206f66667365743d273127202073746f702d636f6c6f723d2723464133272073746f702d6f7061636974793d27302e35272f3e3c2f6c696e6561724772616469656e743e3c2f646566733e3c726563742066696c6c3d2775726c28236129272077696474683d2738303027206865696768743d27343030272f3e3c672066696c6c2d6f7061636974793d27302e34273e3c636972636c652066696c6c3d2775726c28236229272063783d273236372e35272063793d2736312720723d27333030272f3e3c636972636c652066696c6c3d2775726c28236229272063783d273533322e35272063793d2736312720723d27333030272f3e3c636972636c652066696c6c3d2775726c28236229272063783d27343030272063793d2733302720723d27333030272f3e3c2f673e3c7465787420783d273530252720793d27353025272066696c6c3d2777686974652720666f6e742d66616d696c793d2756657264616e612720666f6e742d73697a653d27312e3572656d2720636c6173733d27626173652720646f6d696e616e742d626173656c696e653d276d6964646c652720746578742d616e63686f723d276d6964646c65273e",
  "linkReferences": {},
  "deployedLinkReferences": {}
}